:020000040800F2
:1000000048050020010100080716000851120008E9
:1000100005160008AD010008B9170008000000002F
:100020000000000000000000000000000B160008A7
:10003000AF01000800000000091600080D160008B6
:100040001B0100081B0100081B0100081B01000820
:100050001B0100081B0100081B0100081B01000810
:100060001B0100081B0100081B0100081B01000800
:100070001B0100081B0100081B0100081B010008F0
:100080001B0100081B0100081B0100081B010008E0
:100090001B0100081B0100081B0100081B010008D0
:1000A0001B0100081B0100081B0100081B010008C0
:1000B0001B0100081B0100081B0100081B010008B0
:1000C0001B0100081B0100081B0100081B010008A0
:1000D0001B0100081B0100081B0100081B01000890
:1000E0001B0100081B0100081B010008DFF80CD0F1
:1000F00000F04AF800480047B922000848050020EF
:100100000648804706480047FEE7FEE7FEE7FEE7B1
:10011000FEE7FEE7FEE7FEE7FEE7FEE76F160008F4
:10012000ED000008D2B201E000F8012B491EFBD21D
:1001300070470022F6E710B513460A4604461946F2
:10014000FFF7F0FF204610BD420005D0C0F3C752B4
:100150005242914201DC0020704700EBC1507047D1
:1001600020F00040C10DC0F3160040F400007F29CC
:1001700001DA00207047962903DCC1F19601C840DE
:100180007047963988407047064C074D06E0E06896
:1001900040F0010394E8070098471034AC42F6D3CE
:1001A000FFF7A8FF0424000824240008FEE7704796
:1001B00070B5044600F004F90546601C02D00448FE
:1001C0000078044400F0FCF8401BA042FAD370BD54
:1001D000080000202DE9F84FDFF8B891002409F15C
:1001E000040A0AF1040B23460F270BF1040EC9E0A1
:1001F0000125A5402A40AA427DD1674ED1F804C00E
:10020000ACEB0608B44532D014DCBCF1030F3AD095
:1002100009DCBCF1000F2AD0BCF1010F1CD0BCF1ED
:10022000020F31D11DE0BCF1110F17D0BCF1120F3C
:100230002AD119E0B8F5881F19D006DCB8F5803F3F
:1002400015D0B8F5801F1FD111E0B8F5001F0ED0F2
:10025000B8F5041F18D10AE0CB6815E0CB681B1D68
:1002600012E0CB6808330FE0CB680C330CE08B68EE
:100270002BB1012B4FF0080303D0456104E00423A8
:1002800002E0056100E00023FF2A01D8064601E0F4
:1002900000F104064FEA840501D9A5F12005D6F83E
:1002A000008007FA05FC28EA0C0803FA05F548EA7D
:1002B0000508C6F800804D68ED0062D5374DAE697F
:1002C00046F00106AE61AD6924F0030605F00105B4
:1002D0000095334D06EB050CDCF80850A607360FE9
:1002E00007FA06F825EA0805DFF8B880404503D18B
:1002F0004FF0000817E044E0DFF8AC80404502D141
:100300004FF001080FE0DFF8A480404502D14FF024
:10031000020808E0DFF89880404502D14FF003085A
:1003200001E04FF0040808FA06F848EA0508CCF89E
:1003300008804D68D9F80060ED034D4601D516439D
:1003400000E096432E604D68DAF80060AD03554634
:1003500001D5164300E096432E604D68DBF800603F
:10036000ED025D4601D5164300E096432E604D68D0
:10037000DEF80060AD02754601D5164300E09643F5
:100380002E60641C0D682A46E5407FF431AFBDE85D
:10039000F88F00000004014000001110001002401E
:1003A0000000014000080140000C01400010014025
:1003B000001401400AB1016170470904FBE7000025
:1003C00001488068704700000800002090F83D0058
:1003D0007047000070B5040025D094F83D0000255A
:1003E00020B984F83C50204600F026FB242084F8F5
:1003F0003D002068016821F001010160206801686A
:1004000041F4004101602068016821F4004101606D
:1004100000F06AFC4D4A6168914201D84C4900E005
:100420004C49884201D2012070BD4B492368B0FB82
:10043000F1F15E6826F03F060E435E60636893420A
:1004400006D94FF4967359434FF47A73B1FBF3F125
:100450002368491C1E6A26F03F0631431962616811
:10046000914210D84900401EB0FBF1F2521CC2F379
:100470000B02042A01D2042022E0B0FBF1F0401C60
:10048000C0F30B001CE0A268F2B301EBC10303EB65
:100490000116431EB3FBF6F35B1C43F480431B05BC
:1004A00049D092B301EBC10202EB0111401EB0FB37
:1004B000F1F0401CC0F30B0040F4804040F40040D9
:1004C0002168CA694CF6FF739A431043C861D4E9A6
:1004D000071001432068026822F0C0021143016046
:1004E000D4E9030101432068826848F2FF339A434C
:1004F00011438160D4E9050108432168CA6822F0EC
:10050000FF021043C86001E00EE016E020680168B9
:1005100041F0010101602564202084F83D0025633D
:1005200084F83E50002070BD01EB4106431EB3FB32
:10053000F6F35B1CB3E70120C2E701EB4101401E6B
:10054000B0FBF1F0401CC0F30B00B7E7A086010040
:1005500080841E0000093D0040420F002DE9FF4F3E
:1005600081B089460446FFF72BFF054694F83D000D
:100570004FF0010820287DD119230122504920463F
:10058000009500F067FF002874D194F83C00012822
:1005900070D0012084F83C0020680168C90703D1AD
:1005A000016841F0010101602068016821F40061E7
:1005B0000160242084F83D00002626644148E06262
:1005C0004FF0011B20272068016841F48071016011
:1005D0000095002259462046049B00F03BFF50B195
:1005E00020680068C00502D54FF400702064032025
:1005F00005B0BDE8F08F216809F0FE000861FFF743
:10060000DFFE2168054648694969C0F34000C1F32F
:1006100080214FF0A00A0FE0FFF7D2FE411B0498A3
:10062000814200D808B984F83DA021684869496929
:10063000C0F34000C1F3802194F83D20A02A02D0ED
:1006400008B90029E8D084F83D7020684169C943A1
:10065000890716D4016841F400710160206841697E
:1006600080691923012216492046009500F0F2FE08
:10067000B8B900E021E084F83D7084F83C600020C7
:10068000B6E7016841F40071016021686FF4806091
:100690004861192301220A492046009500F0DAFE3C
:1006A00008B10120A4E7039808F1010880458AD326
:1006B00084F83D7084F83C60F3E7022098E700007E
:1006C000020010000000FFFF2DE9F84F0025DDF8C3
:1006D0002890984617468A4604460095FFF770FE14
:1006E000064694F83D0020287AD119230122834937
:1006F0002046009600F0AEFE0028F5D194F83C00AC
:1007000001286DD0012084F83C0020680168C907E9
:1007100003D1016841F0010101602068016821F402
:1007200000610160222084F83D00102084F83E0022
:1007300025646762A4F82A80608D20857048E06295
:1007400033464A465146204600F09AFD00287DD1A6
:10075000208DDFF8B081202768B1012814D002284D
:10076000206801681ED041F4806101602068416901
:1007700080690090B5E02068416981690091016855
:1007800041F400710160ACE02068016821F48061EF
:10079000016072B62068416981690091016841F485
:1007A00000710AE041F40061016072B6206841699D
:1007B00081690091016821F48061016062B690E076
:1007C000032868D801280CD002284B464FF00002BD
:1007D0004146204600960FD000F03CFEB0BB10E032
:1007E0008AE032464946204600F0B3FE70BB2068DE
:1007F0000069616A08706BE000F02CFE30BB72B6D5
:1008000034E02068016821F48061016072B62068DC
:100810000069616A0870606A401C6062208D401E39
:100820002085608D401E6085374846F2A81100681B
:10083000B0FBF1F0C0EBC00000EB80000090401E68
:10084000009008D020684069C04300E029E04007DC
:100850000CD50098F3E744F8305F6773A5732069FF
:1008600040F02000206162B625731AE0206801681C
:1008700041F40071016020680069616A0870606A73
:10088000401C6062218D491E2185618D491E618554
:1008900062B621681AE032464946204600F059FE09
:1008A00010B10120BDE8F88F20680069616A087006
:1008B000606A401C6062218D491E2185618D491E40
:1008C000618521684A69D24352070AD409690170D7
:1008D000606A401C6062208D401E2085608D401E35
:1008E0006085208D00287FF46BAF84F83D7084F81C
:1008F0003E5084F83C50D5E70220D3E702001000B8
:100900000000FFFF04000100140000202DE9F84F53
:100910001F4690468A460446DDF82890FFF750FDB2
:10092000054694F83D0020287FD119230122404933
:100930002046009500F08EFD002876D194F83C000A
:10094000012872D0012084F83C0020680168C907A2
:1009500003D1016841F0010101602068016821F4C0
:1009600000610160212084F83D00102084F83E00E1
:1009700000262664C4F824806785608D20852D4874
:10098000E0622B464A465146204600F0EFFC90B903
:10099000206841698069009036E02A464946204631
:1009A00000F00AFE50B1206C042804D120680168D0
:1009B00041F4007101600120BDE8F88F606A216890
:1009C00000780861606A401C6062618D491E618523
:1009D000218D491E89B2218522685369DB435B075B
:1009E0000BD451B100781061606A401C6062608D68
:1009F000401E6085208D401E20852A46494620469F
:100A000000F002FD0028CED1208D0028C5D154F879
:100A10003D0B016841F400710160202004F81E09BB
:100A2000E67766770020C7E7FFE70220C4E700000B
:100A3000020010000000FFFF10B586B000210091F9
:100A400001910291039100681349884222D1134C0D
:100A5000A06940F00800A061A069694600F00800A4
:100A600004904FF4407000901220019003200390F6
:100A70000B48FFF7AFFB0B48416841F0E06141F0E4
:100A800002014160E06940F40010E061E06900F4B7
:100A90000010049006B010BD005400400010024049
:100AA000000C0140000001400248816802781144B6
:100AB0008160704708000020074810B5016841F0C8
:100AC00010010160032000F067F8002000F006F834
:100AD00000F024F8002010BD0020024070B50D4D3C
:100AE00004464FF47A712878B1FBF0F00A4909689E
:100AF000B1FBF0F000F0DEFA48B9102C07D200226A
:100B00002146501E00F028F800206C6070BD0120C6
:100B100070BD000008000020140000200C4808B53B
:100B2000816941F001018161816901F00101009158
:100B3000C16941F08051C161C06900F080500090EE
:100B40000448416821F0E06141F00071416008BD56
:100B50000010024000000140F0B40E4B1B680C4630
:100B6000C3F30223C3F10705042D00D90425191D81
:100B7000072901D2002300E0DB1E012606FA05F159
:100B8000491E214099409E40761E16403143F0BCDC
:100B900001F000BB0CED00E0064900F00702086818
:100BA0004FF6FF03184040EA0220034A1043086052
:100BB000704700000CED00E00000FA052DE9F04759
:100BC0000F46050061D0434E306800F00700B84280
:100BD00009D2306820F0070038433060306800F0F8
:100BE0000700B84251D128683B4C810712D5400715
:100BF00003D5606840F4E06060602878000703D5A2
:100C0000606840F4605060606068A96820F0F0009F
:100C1000084360602878C00728D06868012810D091
:100C20002168022810D0890700292EDA616821F096
:100C3000030101436160FFF7C3FB804641F288393D
:100C40000DE021688903EFE78901EDE7FFF7B8FBC5
:100C5000A0EB0801494502D90320BDE8F087606890
:100C6000696800F00C00B0EB810FEFD1306800F044
:100C70000700B8420BD9306820F0070038433060D5
:100C8000306800F00700B84201D00120E5E728787D
:100C9000400705D56068E96820F4E06008436060BB
:100CA0002878000706D56068296920F4605040EA7A
:100CB000C100606000F038F86168084AC1F30311B0
:100CC000515CC8400649086006480068FFF706FF07
:100CD0000020C2E70020024000100240EC23000880
:100CE000140000200C0000200448054900684968F1
:100CF000044AC1F30221515CC8407047140000202F
:100D000000100240FC2300080448054900684968B7
:100D1000044AC1F3C221515CC8407047140000204E
:100D200000100240FC23000812A185B00FC98DE815
:100D30000F0014A0144A006804905168134801F091
:100D40000C03042B10D0082B0ED1C1F38343C9032D
:100D50001DF803000AD5516804AAC1F34041515C53
:100D60000A4A5043B0FBF1F005B0704708494843C8
:100D7000FAE7000002030405060708090A0B0C0D38
:100D80000E0F1010010200000010024000127A0045
:100D900000093D002DE9F84F040070D02078C04DC7
:100DA000C00749D06868C0F38100012807D068688F
:100DB000C0F38100022809D16868C00306D52868FD
:100DC000800339D560680028E7D035E06068B0F569
:100DD000803F0BD010B1B0F5A02F11D0286820F4BF
:100DE00080302860286820F4802002E0286840F4E1
:100DF00080302860606890B1FFF7E2FA06460AE0AA
:100E0000286840F480202860F0E700BFFFF7D8FA98
:100E1000801B642873D828688003F7D50CE0FFF79F
:100E2000CFFA064605E000BFFFF7CAFA801B642828
:100E3000F0D828688003F7D420789A4E80074FF0C6
:100E400001094FF0000839D5686810F00C0F07D081
:100E50006868C0F38100022809D16868C00306D41D
:100E60002868800714D52069012808D110E020697E
:100E7000B0B1C6F80090FFF7A3FA074605E00AE113
:100E8000FFF79EFAC01B0228C4D828688007F7D550
:100E90002868616920F0F80040EAC10028600DE090
:100EA000C6F80080FFF78CFA074604E0FFF788FADF
:100EB000C01B022823D828688007F7D420780007B1
:100EC0002CD57948A169D9B1C0F80090FFF778FA1C
:100ED000074604E0FFF774FAC01B02280FD8686ABF
:100EE0008007F7D571484FF4FA510068B0FBF1F074
:100EF000009000BF0098411E0091FAD20EE080E001
:100F0000C0F80080FFF75CFA074604E0FFF758FAE4
:100F1000C01B022875D8686A8007F7D4207840077C
:100F200060D5E8690027C00008D4E86940F0805027
:100F3000E861E869012700F0805000905C48016892
:100F4000C90513D40168834641F480710160FFF73D
:100F500037FA824606E000BFFFF732FAA0EB0A003C
:100F600064284ED8DBF80000C005F5D5E0680128FC
:100F70000AD008B1052813D0286A20F001002862A1
:100F8000286A20F0040002E0286A40F0010028628C
:100F9000E06841F2883B98B1FFF712FA82460BE015
:100FA000286A40F004002862EEE700BFFFF708FA65
:100FB000A0EB0A0159455AD8286A8007F6D50CE0FB
:100FC000FFF7FEF9824605E0FFF7FAF9A0EB0A0108
:100FD00059454CD8286A8007F6D41FB1E86920F03B
:100FE0008050E861E06988B36968C1F38101022932
:100FF00044D00228C6F8608004D0FFF7E1F9044627
:1010000038E034E0FFF7DCF9074604E0FFF7D8F9F1
:10101000C01B02282BD828688001F7D4206AB0F5BD
:10102000803F05D16868A16820F4003008436860FB
:10103000D4E908010843696821F474110843686021
:10104000C6F86090FFF7BCF9044606E025E000BF53
:10105000FFF7B6F9001B022809D828688001F7D5E8
:101060001BE000BFFFF7ACF9001B022802D90320E8
:10107000BDE8F88F28688001F4D40EE00128F7D08D
:101080006868226A00F48031914204D1616A00F4F8
:101090007010884201D00120EAE70020E8E7000054
:1010A000001002400000424280044242140000202E
:1010B0000070004010B5401EB0F1807F01D30120C8
:1010C00010BD4FF0E02460610F21601701F062F85D
:1010D0000020A06107202061002010BD70B5040031
:1010E00004D094F83D00002510B106E0012070BD49
:1010F00084F83C50204600F01BF8022084F83D00A4
:10110000204600F0B5FA2068016921F480410161B0
:101110002068416921F02A0141612068C16841F4D9
:101120000051C1602564012084F83D00002070BD9D
:1011300030B585B0002400940194029403940068B3
:101140001449884224D11448816941F48041816165
:10115000816901F480410491816941F00401816158
:1011600080690E4D00F0040004904FF44070009030
:10117000022001900320039069462846FFF72AF8D1
:101180002815CDE90004694628460294FFF722F8A5
:1011900005B030BD00380140001002400008014099
:1011A0002DE9F84F044690F83D001F4616460D46BF
:1011B00001284BD1CDB1C6B194F83C00012845D0EF
:1011C0004FF0010884F83C804FF00009C4F84090CB
:1011D000122084F83D00FFF7F3F8268582466685E5
:1011E000A068B0F5805F03D004E00120BDE8F88F6F
:1011F000206910B12E4600250EE000260CE080216B
:10120000204600F09FFAA0B9AEB116F8010B216894
:101210004860608D401E6085608D53464FF000022F
:1012200000970028EBD14FF04001204600F08AFAE9
:1012300030B10320DAE735F8020BC0F30800E6E727
:1012400084F83D8084F83C900020CFE70220CDE771
:10125000FEE701684A69D24352050FD46FF48062F9
:101260004A61002140F8301F2022427381730269D5
:1012700042F00402026101730120704700207047B0
:101280002DE9F84F0446C06A1E4693460D46216874
:101290000A6842F480620A60082807D0012805D055
:1012A00010F5803F02D0206B112804D1206801681E
:1012B00041F4807101604FF001195B4600224946FC
:1012C0002046009600F0C6F84FF4007840B1206840
:1012D0000068C00501D5C4F840800320BDE8F88F40
:1012E0002069DFF884A0B0F5804F0FD00620216878
:1012F00000EAD51747F0F000086133465A460AF174
:101300000601204600F0DAF858BB03E0E8B240F0EE
:1013100001001CE02168E8B2086133465A46514694
:10132000204600F0CBF8E0B920684169816900915E
:10133000016841F4807101605B4600224946204605
:10134000009600F087F80028C1D147F0F10021682D
:10135000086133465A465146204600F0AFF800284F
:10136000BCD00120BAE7000002000100F8B5044635
:10137000C06A1E460D461746082807D0012805D02A
:1013800010F5803F02D0206B122804D1206801683C
:1013900041F480710160134600224FF00111204694
:1013A000009600F057F840B120680068C00502D5EB
:1013B0004FF4007020640320F8BD2069B0F5804F21
:1013C0000ED00620216800EAD51040F0F000086138
:1013D00033463A460B49204600F070F878B902E0EF
:1013E00005F0FE0000E0E8B22168086105493346D7
:1013F0003A46891F204600F061F80028DCD0012021
:10140000F8BD00000800010070B516460D46044600
:101410000DE02046FFF71DFF08B1012070BD681CDC
:1014200005D0FEF7CDFF801BA84207D835B1206854
:101430004069C0434007ECD4002070BD002044F850
:10144000300F20216173A073216941F020012161D7
:101450002073E2E72DE9F0471E4690460D4604460C
:10146000C1F30747DDF8209008E0701C06D0FEF7B6
:10147000A7FFA0EB0900B0420FD876B12068012F7A
:1014800018D0806925EA00000004000C14D0002167
:101490004145EAD00020BDE8F087002044F8300F35
:1014A00020216173A073216941F020012161207323
:1014B0000120F0E74069E5E70121E9E72DE9F04780
:1014C0009A4691460E46044600254FF02008C1F387
:1014D000074725E020684069C043400514D42068D0
:1014E000016841F40071016021686FF48060486117
:1014F000256384F83D8084F83E50206C40F0040061
:10150000206484F83C501FE0B9F1FF3F08D0FEF79B
:1015100057FFA0EB0A0149450CD8B9F1000F09D0DB
:101520002068012F13D0806926EA00000004000C17
:101530000BD0CFE744F8305F84F80D80A5732069A5
:1015400040F02000206125730120BDE8F08740694C
:10155000EAE72DE9F041002590460E460446202793
:1015600017E04069C043C0060CD454F8301B6FF03C
:101570001000486144F810596777A577206A206207
:10158000257717E0FEF71CFFA0EB0800B04208D853
:101590003EB120684169C9434906E2D40020BDE854
:1015A000F08144F8305F6773A573206940F0200034
:1015B000206125730120F2E770B516460D460446FA
:1015C0000DE02046FFF745FE08B1012070BD681C04
:1015D00005D0FEF7F5FE801BA84207D835B120687C
:1015E0004069C0430006ECD4002070BD002044F8E0
:1015F000300F20216173A073216941F02001216126
:101600002073E2E7FEE7FEE770477047FFF74CBA4A
:1016100030B58FB028216846FEF78BFD14210AA84B
:10162000FEF787FD01210804CDE900100024029493
:1016300002250491CDE907504FF4E0100990684667
:10164000FFF7A8FB08B172B6FEE70F20CDE90A0547
:101650004FF48060CDE90C4002210AA80E94FFF7F8
:10166000ADFA002801D072B6FEE70FB030BD70476A
:101670002DE9F04104460068C16821F00C01C16009
:1016800020680169D4E906231A43E568236A21F436
:101690007C512B431A430A4342F4006101612268E2
:1016A000D16841F20C6081432369A06818436369E3
:1016B0000B431843D0602068416921F440714161B7
:1016C0001F49206864253226884202D1FFF71CFB9F
:1016D00001E0FFF709FB00EBC00101EB00116068BE
:1016E0006FF0180C8000B1FBF0F3B3FBF5F3B1FB26
:1016F000F0F7B1FBF0F203FB0CF307EB830306EB0F
:101700000313B2FBF5F2B3FBF5F3120103F0F003A0
:1017100002EB4302B1FBF0F3B1FBF0F0B0FBF5F0EC
:1017200000FB0CF003EB800006EB0010B0FBF5F0C3
:10173000216800F00F0010448860BDE8F0810000CF
:10174000003801402DE9F041984617460E46044600
:10175000069D25E0681C23D02DB1FEF731FEA0EBDD
:101760000800A8421CD92068C16821F08001C1602E
:101770002068C16821F02001C1602068C16821F49F
:101780008071C1602068416921F00101416101203F
:1017900084F83D00002084F83C000320BDE8F0817F
:1017A0002068006836EA000004D00020B842D1D09A
:1017B0000020F3E70120F9E7FEE7C1B2000A81400B
:1017C000491C88B270470021002808D0401E01E063
:1017D0004008491C020AFBD161F31F2080B2704708
:1017E00010B588B040F63634684600F02FF802A9EC
:1017F000684600F03FF89DF8000010B1059C04F623
:1018000084549DF8020028B1059804EB400404F2CA
:10181000645406E09DF8010018B1059804F525749C
:1018200004449DF8030018B1069804F52574044497
:101830009DF8040018B1079804F2262404440248D5
:10184000C46008B0204610BD3401002010B5044625
:10185000012000F04BFBC0F300112170C0F3C00168
:10186000A170C0F380016170C0F38011E170C00904
:10187000207110BD70B505460C46002000F090F8B0
:101880002080462000F032FB401CA080217800F030
:10189000FBFBE060512000F053FBFFF78EFFE08080
:1018A000217800F0F1FB2061012000F079F86080E0
:1018B000712000F045FBFFF780FF2081E97811B12E
:1018C000E188401A2081A178208900F0DDFB606169
:1018D00070BD000070B50C4605460121802000F067
:1018E0001BFC0121FF2000F017FC0021084600F03E
:1018F00013FC0621FF2000F00FFC832000F0F6FA15
:1019000040F00401832000F007FC0721FF2000F0D5
:1019100003FC0121812000F0FFFB0121802000F069
:10192000FBFB6B21942000F0F7FB0021832000F0EB
:10193000F3FB1A490020C880832000F0D7FA002862
:10194000FAD00121832000F0E7FB922000F0CEFACC
:1019500000F07F012970C00920700021812000F073
:10196000DBFB0621FF2000F0D7FB832000F0BEFA4E
:101970000146832000F0D0FB0121FF2000F0CCFBCA
:101980000121002000F0C8FB0021FF2000F0C4FB73
:101990000021802000F0C0FB012070BD3401002038
:1019A00010B518B1012803D0FF2010BD502000E071
:1019B000702000F09BFA401C400010BD2DE9FF4153
:1019C0000446C02000F092FAEE2803D0002004B0B4
:1019D000BDE8F0813CB1892000F088FA40F00101B7
:1019E000892000F099FB0021882000F095FB01215F
:1019F000802000F091FB0121FF2000F08DFB0021F1
:101A0000084600F089FB912000F070FAF04C0121AB
:101A10002072002000F080FB0021FF2000F07CFB02
:101A20000021802000F078FB602000F05FFA40F099
:101A30001201602000F070FB4FF07A5000F00EFBB6
:101A4000FF21012000F068FB03A902A8FFF742FF75
:101A50000028BCD006226946B02000F0D5F901214B
:101A6000FF2000F059FB00214F2000F055FB2C21F6
:101A70004E2000F051FB0021FF2000F04DFBB4216F
:101A8000B62000F049FB9DF80C0008B10C2500E0E1
:101A9000002500219DF80870084601266A46A842E4
:101AA00001D3B9420CD102EBD00300F0070E93F83A
:101AB00000C006FA0EFE2CEA0E0C83F800C00AE005
:101AC00002EBD00300F0070C1B7823FA0CF3DB07C2
:101AD00001D0491CC9B2401CC0B23028DFD3062255
:101AE0006946B02000F0F0FA0121FF2000F014FB5D
:101AF0000021084600F010FB0021FF2000F00CFB45
:101B00000021092000F008FB0021102000F004FB58
:101B10000021112000F000FB0121242000F0FCFA3C
:101B2000FF21252000F0F8FA0021752000F0F4FADA
:101B30000121FF2000F0F0FA2C214E2000F0ECFAF9
:101B40000021482000F0E8FA2021302000F0E4FADB
:101B50000021FF2000F0E0FA0921302000F0DCFA3B
:101B60000021542000F0D8FA0421312000F0D4FAEA
:101B70000321322000F0D0FA8321402000F0CCFA7B
:101B80002521462000F0C8FA0021602000F0C4FAA8
:101B90000021272000F0C0FA0621502000F0BCFAF6
:101BA0000021512000F0B8FA9621522000F0B4FA3A
:101BB0000821562000F0B0FA3021572000F0ACFA8E
:101BC0000021612000F0A8FA0021622000F0A4FAB0
:101BD0000021642000F0A0FA0021652000F09CFAAA
:101BE000A021662000F098FA0121FF2000F094FA6D
:101BF0003221222000F090FA1421472000F08CFAC4
:101C0000FF21492000F088FA00214A2000F084FAE0
:101C10000021FF2000F080FA0A217A2000F07CFAEF
:101C200000217B2000F078FA2121782000F074FA5E
:101C30000121FF2000F070FA3421232000F06CFA1B
:101C40000021422000F068FAFF21442000F064FAED
:101C50002621452000F060FA0521462000F05CFABC
:101C60004021084600F058FA06210E2000F054FAF0
:101C70001A21202000F050FA4021432000F04CFAB5
:101C80000021FF2000F048FA0321342000F044FA3C
:101C90004421352000F040FA0121FF2000F03CFAF9
:101CA0000421312000F038FA09214B2000F034FAE9
:101CB00005214C2000F030FA04214D2000F02CFAD0
:101CC0000021FF2000F028FA0021442000F024FA2F
:101CD0002021452000F020FA0821472000F01CFABE
:101CE0002821482000F018FA0021672000F014FA9B
:101CF0000421702000F010FA0121712000F00CFA8C
:101D0000FE21722000F008FA0021762000F004FA8B
:101D10000021772000F000FA0121FF2000F0FCF9FB
:101D200001210D2000F0F8F90021FF2000F0F4F966
:101D30000121802000F0F0F9F821012000F0ECF9F9
:101D40000121FF2000F0E8F901218E2000F0E4F9E4
:101D50000121002000F0E0F90021FF2000F0DCF973
:101D60000021802000F0D8F904210A2000F0D4F9E5
:101D7000842000F0BBF820F01001842000F0CCF9A2
:101D800001210B2000F0C8F9FFF72AFDE060E821EF
:101D9000012000F0C1F9E06800F00EF901210846C9
:101DA00000F0BAF9402000F015F800283FF40FAE1B
:101DB0000221012000F0B0F9002000F00BF800280B
:101DC000F4D0E821012000F0A7F90120FFE5000090
:101DD0003401002010B540F00101002000F09CF912
:101DE00008490020C880132000F080F84007FAD08E
:101DF00001210B2000F090F90021084600F08CF939
:101E0000012010BD34010020F8B515460E460446E9
:101E10001148FEF7DBFA2028FAD1104801230F4AB7
:101E200004700E4C4FF47A706434009020784100B6
:101E30000948FEF76BFD0848FEF7C8FA2028FAD1DA
:101E40004FF6FF70009020782B4641003246024842
:101E5000FEF73AFCF8BD000018000020D00000207A
:101E6000094910B50020C880132000F03FF8400752
:101E7000FAD01E2000F064F8044601210B2000F087
:101E80004BF9204610BD00003401002010B501219F
:101E9000802000F041F90121FF2000F03DF90021F0
:101EA000084600F039F9104C9120217A00F034F9FD
:101EB0000121002000F030F90021FF2000F02CF972
:101EC0000021802000F028F90121002000F024F9F1
:101ED0000020E080002000F009F8C007FAD1BDE83A
:101EE0001040FFF7BDBF000034010020F8B50446E4
:101EF0001148FEF76BFA2028FAD1104D05F164065F
:101F00002C704FF47A7400943078012341000B4A0E
:101F10000948FEF7FBFC0028F5D10748FEF756FA02
:101F20002028FAD10094307801234100034A024866
:101F3000FEF7CAFB2878F8BD18000020D00000206A
:101F4000F8B505461448FEF741FA2028FAD1134C9B
:101F50004FF47A76257004F1640500962878012301
:101F600041000E4A0C48FEF7D1FC0028F5D10A4882
:101F7000FEF72CFA2028FAD14FF6FF70009028784F
:101F800002234100054A0448FEF79EFB6078217851
:101F900000EB012080B2F8BD18000020D000002026
:101FA00010B5044600F07F018A2000F0B5F8014822
:101FB000047010BD3401002030B5054644F62060A1
:101FC00089B085422CD340F6E8046846FFF73EFC12
:101FD00002A96846FFF74EFC9DF8000010B1059C71
:101FE00004F636349DF8020028B1059804EB40044D
:101FF00004F2645406E09DF8010018B1059804F558
:10200000257404449DF8030018B1069804F525745E
:1020100004449DF80400E0B104F22624AC4202D945
:10202000002009B030BDBDF80A10281BC9B200F06D
:102030003BF89DF8031080B219B1BDF80E100844AA
:1020400080B2FFF7C0FB0146712000F083F8024820
:10205000C5600120E5E700003401002010B510F153
:10206000FF4F02D20749884201DD002010BD072141
:10207000FEF76AF8FEF774F881B2442000F06AF8BF
:10208000012010BDB8FEFF4343F62F2251434FF409
:10209000FA7202EB01215200B1FBF2F1484300EB6E
:1020A0005100B0FBF2F0704743F62F2251434FF43A
:1020B000FA7202EB01215200B1FBF2F1504300EB46
:1020C0005100B0FBF1F07047F8B514460D460646D6
:1020D0000F48FEF77BF92028FAD10E4901200E7037
:1020E00005E000BF15F8012B0A54401CC0B2A04205
:1020F000F8D9084E4FF47A75643600953078631C31
:102100004100044A0248FEF701FC0028F5D1F8BD61
:1021100018000020D000002038B50C4605460B48BA
:10212000FEF754F92028FAD10948057044704FF49D
:102130007A7400F164050094287802234100044A6F
:102140000248FEF7E3FB0028F5D138BD1800002057
:10215000D000002038B50C4605460C48FEF736F98D
:102160002028FAD10A49200A0D7048708C704FF46B
:102170007A7401F164050094287803234100044A2D
:102180000248FEF7C3FB0028F5D138BD1800002037
:10219000D00000200907090E002804DB00F1E02030
:1021A00080F80014704700F00F0000F1E02080F884
:1021B000141D704702E008C8121F08C1002AFAD196
:1021C00070477047002001E001C1121F002AFBD1B7
:1021D0007047000070B50E4D0E4E28783070FFF736
:1021E00055FEAC1C8008207020206070687830702C
:1021F000FFF74CFE8008A0700A20E0702146BDE881
:1022000070404FF6FF7304220348FEF7C9BF000079
:1022100000000020340100206C00002010B50020D8
:1022200000F0D6F80120FFF7C9FB002809D00549C6
:102230004FF4FA704880BDE8104044F62060FFF784
:10224000BBBE10BD34010020F8B5184C184D2078E5
:102250002870FFF7E3FF0A20FDF7AAFFC220FFF76F
:1022600045FE8DF800004FF6FF76334601226946A1
:102270001048FEF795FF4FF4FA70FDF799FF60786C
:102280002870FFF7CBFF0A20FDF792FFC220FFF76F
:102290002DFE8DF800003346012269460548FEF701
:1022A0007FFF6420FDF784FFF8BD000000000020E0
:1022B000340100206C00002008B5FEF7FDFBFFF79D
:1022C000A7F93B48816941F020018161816901F0F2
:1022D00020010091816941F004018161816901F06F
:1022E00004010091816941F00801816180693149EF
:1022F00000F0080000903048002401602F49C0E938
:1023000001144FF48041C0E9034144618461C46118
:102310000462FEF75FF808B172B6FEE72648284966
:10232000543001604FF4E131C0E901140C21C46064
:10233000C0E904418461C4610462FEF7CFFE08B1C4
:1023400072B6FEE701244FF6FF7500BF05EA4401AF
:10235000052303221848FEF701F928B3641C802CDA
:10236000F4DB18484078FFF71BFE1348164C9830F2
:102370000122008881B22046FEF71CF80E48012297
:10238000A830008881B22046FEF714F80A20FDF735
:102390000FFFFFF759FF4FF4967400BFFFF71AFFC6
:1023A0002046FDF705FFF9E708480470D9E700006B
:1023B000001002400054004018000020801A06005F
:1023C00000380140000000200008014034010020D6
:1023D00001B54FF6FF73012269460348FEF7E0FEA0
:1023E0000A20FDF7E5FE08BD6C000020000000009B
:1023F00000000000010203040607080900000000B5
:10240000010203042424000800000020180000003A
:10241000B42100083C24000818000020300500000A
:10242000C42100084350000000000000010000002B
:0C24300010000000000000000024F40078
:04000005080000ED02
:00000001FF
